:020000040800F2
:1000000000000120A9020008B1020008B5020008A2
:10001000290300082D0300087503000800000000F4
:10002000000000000000000000000000BD03000808
:10003000C103000800000000C5030008C903000850
:10004000D9030008D9030008D9030008D903000820
:10005000D9030008D9030008710900083109000814
:10006000D9030008D9030008D9030008D903000800
:10007000D9030008D9030008D9030008D9030008F0
:10008000D9030008D9030008D903000800000000C4
:10009000000000000000000000000000D90300087C
:1000A000D9030008D9030008D9030008D9030008C0
:1000B000D9030008D9030008D9030008D9030008B0
:1000C000D9030008D9030008D9030008D9030008A0
:1000D000D9030008D9030008D90300080000000074
:1000E000D9030008D9030008D90300080000000064
:1000F000000000000000000000000000D90300081C
:1001000000000000D9030008D9030008D903000843
:1001100000000000000000000000000000000000DF
:10012000D9030008D9030008D9030008D90300083F
:10013000D9030008000000000000000000000000DB
:10014000000000000000000000000000D9030008CB
:10015000D9030008D9030008D9030008D90300080F
:10016000D9030008D90300080000000000000000C7
:10017000000000000000000000000000000000007F
:1001800000000000D903000800000000000000008B
:10019000D903000800B583B000F03CFA304B314A77
:1001A0001360314A1360314B314A03E01168196022
:1001B000043304322F498B42F8D32A4B1A682E4B52
:1001C0009A4204D1284B1A682C4B9A4200D0FEE781
:1001D000234B2B4A13602B4A13602B4B02E0002267
:1001E0001A600433294A9342F9D3254B1B6813B98B
:1001F000244B1B6803B1FEE700F018FA694601A81A
:1002000000F02AF9224C234B1C1BA410002504E00B
:100210001F4B53F8253098470135AC42F8DC1E4C93
:100220001E4B1C1BA410002504E01B4B53F825306B
:1002300098470135AC42F8DC0099019800F0B2FB18
:100240000546174C174B1C1BA41004E0013C144B33
:1002500053F824309847002CF8DC284600F0D8F8F2
:10026000BABADECA0000002074000020000000209E
:10027000A81400087800002078563412325476987A
:1002800078000020100100207800002014010020D8
:10029000040400080404000804040008040400081E
:1002A000040400080404000808B5FFF773FF00BF4A
:1002B00000BEFEE71EF0040F0CBFEFF30880EFF363
:1002C00009807146414A10472DE9F04182B0044649
:1002D0008846134B5E6B9F6B9D6A1B6B13F0020F7E
:1002E0000DD00F4BDB6A002B09DA4BF6AB6100F047
:1002F00081F920B14FF00042094BDA620CE0094865
:1003000000F0E8F8CDF800803B463246294620460A
:1003100000F0F8F800BEFEE702B0BDE8F08100BFD3
:1003200000ED00E01414000800BEFEE71EF0040F0C
:100330000CBFEFF30880EFF309807146244A1047A1
:100340002DE9F04182B004468846084B5E6B9F6BF6
:100350009D6A074800F0BEF8CDF800803B46324663
:100360002946204600F0CEF800BEFEE700ED00E092
:10037000241400081EF0040F0CBFEFF30880EFF305
:1003800009807146134A10472DE9F04182B00446B6
:100390008846084B5E6B9F6B9D6A074800F09AF891
:1003A000CDF800803B4632462946204600F0AAF8A8
:1003B00000BEFEE700ED00E03014000800BEFEE7DE
:1003C00000BEFEE700BEFEE770470000C90200085D
:0C03D000410300088903000800BEFEE79E
:1003DC00A81400080000002078000020A8140008D1
:1003EC000000001000000010780000201401002014
:0803FC000000001000000010D9
:10041000FEE700BF08B50D4B1B6813B90C4A0B4B28
:100420001A600A4B1A68C31C23F0030313440949DA
:100430008B4206D900F0D0FA0C2303604FF0FF3056
:1004400008BD02490B60104608BD00BF7C000020BB
:100450001401002000FC002001230360014B0B600D
:10046000704700BF040000202DE9F04385B004462A
:100470000F46435613BB042528462146ABBE04460F
:100480001FE03546102E28BF1025002306E014F982
:10049000011B04AA1A4402F8101C0133AB42F6D324
:1004A00004AA1344002203F8102CE9464FF0040874
:1004B00040464946ABBE8046761B00E00E46002E05
:1004C000DFD1384605B0BDE8F08300BF08B5FFF7BF
:1004D000CBFF08BD0FB400B583B004AB53F8042BB9
:1004E00001938021064800F0A9FA002803DD0146A7
:1004F0000348FFF7EBFF03B05DF804EB04B070476F
:1005000084000020F8B504460D4617461E462648CE
:10051000FFF7E0FF21682548FFF7DCFF616824480A
:10052000FFF7D8FFA1682348FFF7D4FFE16822480E
:10053000FFF7D0FF21692148FFF7CCFF6169204810
:10054000FFF7C8FFA1691F48FFF7C4FFE1691E4814
:10055000FFF7C0FF1D48FFF7BDFF29461C48FFF706
:10056000B9FF1C4CE16A1C48FFF7B4FF216B1B4824
:10057000FFF7B0FFE16B1A48FFF7ACFF15F0800FF3
:1005800003D039461748FFF7A5FF15F4004F03D0F5
:1005900031461548FFF79EFF1448FFF79BFF069969
:1005A0001348FFF797FFF8BDF8120008081300087A
:1005B000181300082813000838130008481300080F
:1005C00058130008681300087813000888130008FF
:1005D0009413000800ED00E0A4130008B413000811
:1005E000C4130008D4130008E4130008F41300082F
:1005F000FC13000883691A888A4207D10268033A0B
:10060000012A05D80233836101207047002070471A
:100610000020704708B500F00DF8024B024A9A60BE
:1006200008BD00BF00ED00E00000000808B500F0C4
:1006300009F808BD4FF00062014B9A60704700BF97
:1006400000ED00E0224B9B6803F00C03042B07D065
:10065000082B09D0002B2DD11E4A1F4B1A602CE00D
:100660001E4A1D4B1A6028E0194B5A685B6803F05C
:100670003F0312F4800F09D0184AB2FBF3F2144B77
:100680005B68C3F3881303FB02F208E0114AB2FB74
:10069000F3F30F4A5168C1F3881101FB03F20C4BCD
:1006A0005B68C3F3014301335B00B2FBF3F30A4A17
:1006B000136002E0074A084B1A60054B9B68C3F3BE
:1006C0000313074AD15C044A1368CB401360704798
:1006D000003802400024F4000C00002040787D0126
:1006E000401400080C4B1B68B0F5800F0FD801298F
:1006F00002D0022905D00CE01843074B18600020F7
:10070000704723EA0000044B186000207047032064
:1007100070470020704700BF30380240024A034B48
:10072000C3F8082D704700BF0004FA0508E000E098
:1007300054280AD800F01F024009012303FA00F0F0
:10074000034B43F82200002070470120704700BF90
:1007500000E100E054280BD800F01F0340090122FB
:1007600002FA00F02033034A42F8230000207047C9
:100770000120704700E100E054280BD800F01F036F
:100780004009012202FA00F04033034A42F82300F4
:10079000002070470120704700E100E054280ED887
:1007A00079B100F01F034009B433074A52F82330EF
:1007B00023FA00F000F001000870002070470120CB
:1007C00070470220704700BF00E100E0542809D8BC
:1007D0000901C9B200F1604000F5614080F8D01312
:1007E000002070470120704743680F2B3BD870B43E
:1007F0000468002C39D022685B00032101FA03F55C
:1008000022EA050582680A4002FA03F32B432360BB
:1008100005686A6846680124B44022EA04048368D3
:10082000C3F3800202FA06F323436B600668F268A2
:1008300043685C0001FA04F322EA03058368C3F30A
:10084000C10202FA04F32B43F3600668B5684368FB
:100850005C0001FA04F225EA0201C368A3401943CF
:10086000B160002002E003207047032070BC704795
:100870000346B8B10F2917D8012A17D84AB1012A5F
:1008800016D18269012000FA01F10A439A61002021
:10089000704782691F31012000FA01F10A439A6111
:1008A00000207047032070470320704703207047E3
:1008B0000320704710B584B001210220FFF712FF1A
:1008C000012302930223039300240FE00A496300EB
:1008D0001819820010460A44526801920B5804A865
:1008E00040F8103DFFF780FF0134E4B2022CEDD94F
:1008F000002004B010BD00BF50140008032811D818
:10090000012911D838B5094D4400221893002B4411
:100910001A7A204484004A4019792859FFF7A8FF21
:10092000002038BD03207047032070475014000892
:1009300010B582B002248DF8074003238DF80630ED
:1009400001210846FFF7DAFF0620FFF715FF0DF13A
:1009500007010620FFF722FF0DF106010720FFF730
:100960001DFF01212046FFF7C9FF02B010BD00BFE7
:1009700000B583B002238DF8073003238DF80630CD
:1009800001210020FFF7BAFF0DF107010620FFF754
:1009900005FF0DF106010720FFF700FF03B05DF82A
:1009A00004FB00BF08B5FFF785FFFFF7B7FE012185
:1009B0000B20FFF70BFF07210D20FFF707FF062095
:1009C000FFF7B6FE0720FFF7D7FE0720FFF7B0FEC0
:1009D0001220FFF7BFFEFEE7014B1868704700BF0B
:1009E0007000002030B5141E05469BB0184604DA8E
:1009F0008B232B604FF0FF301DE04FF40273ADF8F6
:100A00000C3014BF04F1FF332346029305934FF6D5
:100A1000FF7300910491ADF80E3002461E9B6946AB
:100A2000284600F073F8431CBCBF8B232B6014B125
:100A3000009B00221A701BB030BD000007B5009368
:100A400013460A46014603480068FFF7CBFF03B090
:100A50005DF804FB700000202DE9F0478E689E428F
:100A600082460C46914698463ED88A8912F4906F89
:100A70003AD0256809696F1A6569022305EB4505B7
:100A800095FBF3F57B1C43449D4238BF1D4653053F
:100A90000FD5294600F090FB064698B13A462169E9
:100AA00000F016FBA38923F4906343F08003A38135
:100AB00013E02A4600F0DEFB064670B92169504675
:100AC00000F02CFB0C23CAF80030A38943F040034C
:100AD000A3814FF0FF30BDE8F087266165613E4499
:100AE000ED1B2660A5604646464528BF4646324671
:100AF0004946206800F0F7FAA3689B1BA3602368AF
:100B00001E4426600020BDE8F08700002DE9F04F6C
:100B10009DB0804603938B891C060D4616460DD565
:100B20000B695BB9402100F047FB2860286118B9C8
:100B30000C23C8F80030CDE040236B6100230993FB
:100B400020238DF82930DFF89CB130238DF82A302E
:100B500037463C4614F8013B1BB9B7EB060910D0E9
:100B600003E0252BF9D02746F3E74B4632462946CA
:100B70004046FFF771FF013000F0A780099B4B440E
:100B800009933B78002B00F0A08000234FF0FF3248
:100B900004930793059206938DF853301A93012618
:100BA000052221784E4800F043FA671C049B38B1B7
:100BB0004B4A801A06FA00F0184304903C46EFE7CF
:100BC000D90644BF20228DF853201A0744BF2B2298
:100BD0008DF8532022782A2A03D0079A00210A2070
:100BE0000BE0039A111D12680391002A10DA524299
:100BF00043F00200079204900BE0274601343B7853
:100C0000303B092B03D800FB02320121F5E701B18B
:100C100007923B782E2B1ED17B782A2B0AD1039B7F
:100C20001A1D1B680392002BB8BF4FF0FF33023729
:100C3000059310E000230593781C19460A24074603
:100C400001303A78303A092A03D804FB0121012304
:100C5000F5E703B1059103223978224800F0E8F95D
:100C600040B14023CBEB000003FA00F0049B184393
:100C70000490013739781C488DF8281006227E1C14
:100C800000F0D6F988B1194B33B9039B073323F031
:100C900007030833039314E003AB00932A46144B75
:100CA00004A94046AFF3008007E003AB00932A4657
:100CB0000F4B04A9404600F093F8B0F1FF3F824685
:100CC00003D0099B5344099342E7AB895B0601D4E7
:100CD000099801E04FF0FF301DB0BDE8F08F00BF74
:100CE000741400087A1400087E1400080000000044
:100CF000590A00082DE9F04791461F460A698B689A
:100D0000DDF820809342B8BF1346C9F8003091F84F
:100D1000432006460C4612B10133C9F8003023685F
:100D2000990642BFD9F800300233C9F8003025686F
:100D300015F0060510D104F1190A07E00123524607
:100D400039463046C04701301AD00135E368D9F83A
:100D500000209B1A9D42F1DB94F843302268003357
:100D600018BF012392060FD5E1185A1C302081F8D4
:100D70004300224494F8451082F84310023303E004
:100D80004FF0FF30BDE8F08704F1430239463046AA
:100D9000C0470130F4D02268D9F80050E36802F06F
:100DA0000602042A08BF5D1B2269A3680CBF25EA5E
:100DB000E57500259342C4BF9B1AED184FF000095A
:100DC0001A344D4509D00123224639463046C047E2
:100DD0000130D5D009F10109F3E70020BDE8F08723
:100DE0002DE9F04317460A7E85B06E2A98460646DE
:100DF0000C460C9B01F1430E00F0AE8011D8632A23
:100E000022D009D8002A00F0BB80582A40F0CA80BE
:100E100081F84520834955E0642A1ED0692A1CD0F8
:100E2000C0E0732A00F0B08009D86F2A2ED0702A53
:100E300040F0B8800A6842F020020A603EE0752A5D
:100E400024D0782A3AD0ADE01A6801F14205111D8C
:100E50001960136884F84230A8E021681A6811F01C
:100E6000800F02D0111D196008E011F0400F02F14F
:100E70000401196002D0B2F9003000E01368002BC1
:100E80003CDA2D225B4284F8432037E021681A685F
:100E900011F0800F02D0111D196007E011F0400F12
:100EA00002F10401196001D0138800E01368227E6A
:100EB0005C496F2A14BF0A2208221BE078225A4993
:100EC00084F845202268186812F0800F00F10405AC
:100ED0001D6003D1550601D5038800E00368D007E3
:100EE00044BF42F0200222601BB9226822F0200297
:100EF00022601022002084F8430001E049490A22C0
:100F00006568A560002D08DB206820F004002060E3
:100F10002BB9002D7DD175460CE0002B79D075469C
:100F2000B3FBF2F002FB1033CB5C05F8013D034646
:100F30000028F5D1082A0BD12368DA0708D52369E0
:100F400062689A42DEBF302305F8013C05F1FF35A7
:100F5000C5EB0E0323612EE008681A68496910F09A
:100F6000800F03D0101D1860136808E010F0400FC8
:100F700002F104001860136801D0198000E01960C4
:100F800000232361754616E01A68111D1960156863
:100F900062680021284600F04BF808B1401B6060F1
:100FA000636804E004F1420584F8422001232361D0
:100FB000002384F84330CDF800803B4603AA214645
:100FC0003046FFF797FE013002D14FF0FF3026E0A8
:100FD00023692A4639463046C0470130F5D0236898
:100FE0009B0710D5002504F1190907E001234A46A3
:100FF00039463046C0470130E7D00135E368039AEF
:101000009B1A9D42F2DBE068039B9842B8BF1846EA
:1010100005E00B7884F8423004F142058AE705B018
:10102000BDE8F08385140008961400080000000055
:1010300001F0FF01102A2BDB10F0070F08D010F889
:10104000013B013A8B422DD010F0070F42B3F6D18D
:10105000F0B441EA012141EA014122F007047FF0A6
:1010600000070023F0E80256083C85EA010586EAFD
:10107000010685FA47F5A3FA87F586FA47F6A5FA39
:1010800087F68EB9EED1F0BC01F0FF0102F0070245
:1010900032B110F8013B013A83EA010313B1F8D1F0
:1010A0000020704701387047002D06BF35460338D1
:1010B000073815F0010F07D1013015F4807F02BF0A
:1010C000013015F4C03F0130F0BC0138704700BF5B
:1010D00010B5431E0A44914204D011F8014B03F8A5
:1010E000014FF8E710BD884210B501EB020301D8AB
:1010F000421E0BE09842FBD28118D21AD34204D090
:1011000013F8014D01F8014DF8E710BD994204D0E4
:1011100011F8014B02F8014FF8E710BD38B505464C
:10112000002946D051F8043C0C1F002BB8BFE4182E
:1011300000F0D6F81F4A1368114613B963601460B3
:1011400032E0A3420ED92268A018834204BF186877
:101150005B68636004BF121822600C6024E0A24246
:1011600003D813465A68002AF9D118681918A14201
:101170000BD12168014458188242196014D11068BB
:1011800052685A60014419600EE002D90C232B60AA
:101190000AE021686018824204BF106852686260E9
:1011A00004BF091821605C602846BDE8384000F0A3
:1011B00098B838BD0801002070B5CD1C25F0030596
:1011C00008350C2D38BF0C25002D064601DBA94241
:1011D00002D90C23336046E000F082F8234B1C68F0
:1011E0001A462146A1B10B685B1B0ED40B2B03D909
:1011F0000B60CC18CD501EE08C420DBF63684B686D
:101200006360136018BF0C4615E00C464968E9E7B7
:10121000174C23681BB9304600F052F8206029466D
:10122000304600F04DF8431C18D0C41C24F00304D1
:10123000A0420DD12560304600F053F804F10B00B8
:10124000231D20F00700C31A0ED05A42E25070BD91
:10125000211A304600F034F80130EBD10C23336012
:10126000304600F03EF8002070BD00BF08010020AD
:1012700004010020F8B5074615460E4621B911466F
:10128000BDE8F840FFF798BF1AB9FFF747FF2846B7
:10129000F8BD00F027F885420ED929463846FFF7F9
:1012A0008BFF044650B131462A46FFF711FF314605
:1012B0003846FFF733FF01E03046F8BD2046F8BD61
:1012C00038B5064C0023054608462360FFF7A2F810
:1012D000431C02D1236803B12B6038BD0C010020F0
:1012E0007047704751F8040C0028BEBF091851F828
:1012F000043CC01804387047537461636B206672F5
:10130000616D653A0A000000205230203D20202502
:101310003038580A00000000205231203D2020259E
:101320003038580A00000000205232203D2020258D
:101330003038580A00000000205233203D2020257C
:101340003038580A0000000020523132203D20255C
:101350003038580A00000000204C52203D20202543
:101360003038580A00000000205043203D2020253E
:101370003038580A0000000020505352203D2025EC
:101380003038580A000000004653522F4641523A66
:101390000A0000002043465352203D2020253038CB
:1013A000580A00002048465352203D20202530385E
:1013B000580A00002044465352203D202025303852
:1013C000580A00002041465352203D202025303845
:1013D000580A0000204D4D464152203D202530380E
:1013E000580A00002042464152203D202025303836
:1013F000580A00004D6973630A000000204C522F08
:101400004558435F52455455524E3D20253038587B
:101410000A0000005B486172644661756C745D0A85
:10142000000000005B4275734661756C745D0A00D4
:101430005B55736167654661756C745D0A000000F9
:101440000000000000000000010203040607080974
:1014500000040240010000000000000000040240FF
:101460000200000000000000000402400300000031
:1014700000000000232D302B2000686C4C006566B6
:1014800067454647003031323334353637383941D5
:1014900042434445460030313233343536373839EB
:0714A00061626364656600F0
:1014A8007856341280000020000000000024F40068
:1014B8000000000000000000000000000000000024
:1014C8000000000000000000000000000000000014
:1014D8000000000000000000000000000000000004
:1014E80000000000000000000000000000000000F4
:1014F80000000000000000000000000000000000E4
:1015080000000000000000000000000000000000D3
:08151800100000203254769807
:040000050800019559
:00000001FF
